{"abi":[{"type":"constructor","inputs":[{"name":"_poolManager","type":"address","internalType":"contract IPoolManager"},{"name":"_collateralManager","type":"address","internalType":"address"},{"name":"_oracle","type":"address","internalType":"address"},{"name":"_vcopCurrency","type":"address","internalType":"Currency"},{"name":"_stablecoinCurrency","type":"address","internalType":"Currency"},{"name":"_treasury","type":"address","internalType":"address"},{"name":"_owner","type":"address","internalType":"address"}],"stateMutability":"nonpayable"},{"type":"function","name":"afterAddLiquidity","inputs":[{"name":"sender","type":"address","internalType":"address"},{"name":"key","type":"tuple","internalType":"struct PoolKey","components":[{"name":"currency0","type":"address","internalType":"Currency"},{"name":"currency1","type":"address","internalType":"Currency"},{"name":"fee","type":"uint24","internalType":"uint24"},{"name":"tickSpacing","type":"int24","internalType":"int24"},{"name":"hooks","type":"address","internalType":"contract IHooks"}]},{"name":"params","type":"tuple","internalType":"struct IPoolManager.ModifyLiquidityParams","components":[{"name":"tickLower","type":"int24","internalType":"int24"},{"name":"tickUpper","type":"int24","internalType":"int24"},{"name":"liquidityDelta","type":"int256","internalType":"int256"},{"name":"salt","type":"bytes32","internalType":"bytes32"}]},{"name":"delta","type":"int256","internalType":"BalanceDelta"},{"name":"feesAccrued","type":"int256","internalType":"BalanceDelta"},{"name":"hookData","type":"bytes","internalType":"bytes"}],"outputs":[{"name":"","type":"bytes4","internalType":"bytes4"},{"name":"","type":"int256","internalType":"BalanceDelta"}],"stateMutability":"nonpayable"},{"type":"function","name":"afterDonate","inputs":[{"name":"sender","type":"address","internalType":"address"},{"name":"key","type":"tuple","internalType":"struct PoolKey","components":[{"name":"currency0","type":"address","internalType":"Currency"},{"name":"currency1","type":"address","internalType":"Currency"},{"name":"fee","type":"uint24","internalType":"uint24"},{"name":"tickSpacing","type":"int24","internalType":"int24"},{"name":"hooks","type":"address","internalType":"contract IHooks"}]},{"name":"amount0","type":"uint256","internalType":"uint256"},{"name":"amount1","type":"uint256","internalType":"uint256"},{"name":"hookData","type":"bytes","internalType":"bytes"}],"outputs":[{"name":"","type":"bytes4","internalType":"bytes4"}],"stateMutability":"nonpayable"},{"type":"function","name":"afterInitialize","inputs":[{"name":"sender","type":"address","internalType":"address"},{"name":"key","type":"tuple","internalType":"struct PoolKey","components":[{"name":"currency0","type":"address","internalType":"Currency"},{"name":"currency1","type":"address","internalType":"Currency"},{"name":"fee","type":"uint24","internalType":"uint24"},{"name":"tickSpacing","type":"int24","internalType":"int24"},{"name":"hooks","type":"address","internalType":"contract IHooks"}]},{"name":"sqrtPriceX96","type":"uint160","internalType":"uint160"},{"name":"tick","type":"int24","internalType":"int24"}],"outputs":[{"name":"","type":"bytes4","internalType":"bytes4"}],"stateMutability":"nonpayable"},{"type":"function","name":"afterRemoveLiquidity","inputs":[{"name":"sender","type":"address","internalType":"address"},{"name":"key","type":"tuple","internalType":"struct PoolKey","components":[{"name":"currency0","type":"address","internalType":"Currency"},{"name":"currency1","type":"address","internalType":"Currency"},{"name":"fee","type":"uint24","internalType":"uint24"},{"name":"tickSpacing","type":"int24","internalType":"int24"},{"name":"hooks","type":"address","internalType":"contract IHooks"}]},{"name":"params","type":"tuple","internalType":"struct IPoolManager.ModifyLiquidityParams","components":[{"name":"tickLower","type":"int24","internalType":"int24"},{"name":"tickUpper","type":"int24","internalType":"int24"},{"name":"liquidityDelta","type":"int256","internalType":"int256"},{"name":"salt","type":"bytes32","internalType":"bytes32"}]},{"name":"delta","type":"int256","internalType":"BalanceDelta"},{"name":"feesAccrued","type":"int256","internalType":"BalanceDelta"},{"name":"hookData","type":"bytes","internalType":"bytes"}],"outputs":[{"name":"","type":"bytes4","internalType":"bytes4"},{"name":"","type":"int256","internalType":"BalanceDelta"}],"stateMutability":"nonpayable"},{"type":"function","name":"afterSwap","inputs":[{"name":"sender","type":"address","internalType":"address"},{"name":"key","type":"tuple","internalType":"struct PoolKey","components":[{"name":"currency0","type":"address","internalType":"Currency"},{"name":"currency1","type":"address","internalType":"Currency"},{"name":"fee","type":"uint24","internalType":"uint24"},{"name":"tickSpacing","type":"int24","internalType":"int24"},{"name":"hooks","type":"address","internalType":"contract IHooks"}]},{"name":"params","type":"tuple","internalType":"struct IPoolManager.SwapParams","components":[{"name":"zeroForOne","type":"bool","internalType":"bool"},{"name":"amountSpecified","type":"int256","internalType":"int256"},{"name":"sqrtPriceLimitX96","type":"uint160","internalType":"uint160"}]},{"name":"delta","type":"int256","internalType":"BalanceDelta"},{"name":"hookData","type":"bytes","internalType":"bytes"}],"outputs":[{"name":"","type":"bytes4","internalType":"bytes4"},{"name":"","type":"int128","internalType":"int128"}],"stateMutability":"nonpayable"},{"type":"function","name":"beforeAddLiquidity","inputs":[{"name":"sender","type":"address","internalType":"address"},{"name":"key","type":"tuple","internalType":"struct PoolKey","components":[{"name":"currency0","type":"address","internalType":"Currency"},{"name":"currency1","type":"address","internalType":"Currency"},{"name":"fee","type":"uint24","internalType":"uint24"},{"name":"tickSpacing","type":"int24","internalType":"int24"},{"name":"hooks","type":"address","internalType":"contract IHooks"}]},{"name":"params","type":"tuple","internalType":"struct IPoolManager.ModifyLiquidityParams","components":[{"name":"tickLower","type":"int24","internalType":"int24"},{"name":"tickUpper","type":"int24","internalType":"int24"},{"name":"liquidityDelta","type":"int256","internalType":"int256"},{"name":"salt","type":"bytes32","internalType":"bytes32"}]},{"name":"hookData","type":"bytes","internalType":"bytes"}],"outputs":[{"name":"","type":"bytes4","internalType":"bytes4"}],"stateMutability":"nonpayable"},{"type":"function","name":"beforeDonate","inputs":[{"name":"sender","type":"address","internalType":"address"},{"name":"key","type":"tuple","internalType":"struct PoolKey","components":[{"name":"currency0","type":"address","internalType":"Currency"},{"name":"currency1","type":"address","internalType":"Currency"},{"name":"fee","type":"uint24","internalType":"uint24"},{"name":"tickSpacing","type":"int24","internalType":"int24"},{"name":"hooks","type":"address","internalType":"contract IHooks"}]},{"name":"amount0","type":"uint256","internalType":"uint256"},{"name":"amount1","type":"uint256","internalType":"uint256"},{"name":"hookData","type":"bytes","internalType":"bytes"}],"outputs":[{"name":"","type":"bytes4","internalType":"bytes4"}],"stateMutability":"nonpayable"},{"type":"function","name":"beforeInitialize","inputs":[{"name":"sender","type":"address","internalType":"address"},{"name":"key","type":"tuple","internalType":"struct PoolKey","components":[{"name":"currency0","type":"address","internalType":"Currency"},{"name":"currency1","type":"address","internalType":"Currency"},{"name":"fee","type":"uint24","internalType":"uint24"},{"name":"tickSpacing","type":"int24","internalType":"int24"},{"name":"hooks","type":"address","internalType":"contract IHooks"}]},{"name":"sqrtPriceX96","type":"uint160","internalType":"uint160"}],"outputs":[{"name":"","type":"bytes4","internalType":"bytes4"}],"stateMutability":"nonpayable"},{"type":"function","name":"beforeRemoveLiquidity","inputs":[{"name":"sender","type":"address","internalType":"address"},{"name":"key","type":"tuple","internalType":"struct PoolKey","components":[{"name":"currency0","type":"address","internalType":"Currency"},{"name":"currency1","type":"address","internalType":"Currency"},{"name":"fee","type":"uint24","internalType":"uint24"},{"name":"tickSpacing","type":"int24","internalType":"int24"},{"name":"hooks","type":"address","internalType":"contract IHooks"}]},{"name":"params","type":"tuple","internalType":"struct IPoolManager.ModifyLiquidityParams","components":[{"name":"tickLower","type":"int24","internalType":"int24"},{"name":"tickUpper","type":"int24","internalType":"int24"},{"name":"liquidityDelta","type":"int256","internalType":"int256"},{"name":"salt","type":"bytes32","internalType":"bytes32"}]},{"name":"hookData","type":"bytes","internalType":"bytes"}],"outputs":[{"name":"","type":"bytes4","internalType":"bytes4"}],"stateMutability":"nonpayable"},{"type":"function","name":"beforeSwap","inputs":[{"name":"sender","type":"address","internalType":"address"},{"name":"key","type":"tuple","internalType":"struct PoolKey","components":[{"name":"currency0","type":"address","internalType":"Currency"},{"name":"currency1","type":"address","internalType":"Currency"},{"name":"fee","type":"uint24","internalType":"uint24"},{"name":"tickSpacing","type":"int24","internalType":"int24"},{"name":"hooks","type":"address","internalType":"contract IHooks"}]},{"name":"params","type":"tuple","internalType":"struct IPoolManager.SwapParams","components":[{"name":"zeroForOne","type":"bool","internalType":"bool"},{"name":"amountSpecified","type":"int256","internalType":"int256"},{"name":"sqrtPriceLimitX96","type":"uint160","internalType":"uint160"}]},{"name":"hookData","type":"bytes","internalType":"bytes"}],"outputs":[{"name":"","type":"bytes4","internalType":"bytes4"},{"name":"","type":"int256","internalType":"BeforeSwapDelta"},{"name":"","type":"uint24","internalType":"uint24"}],"stateMutability":"nonpayable"},{"type":"function","name":"calculateCollateralForVCOP","inputs":[{"name":"vcopAmount","type":"uint256","internalType":"uint256"}],"outputs":[{"name":"","type":"uint256","internalType":"uint256"}],"stateMutability":"nonpayable"},{"type":"function","name":"calculateCollateralForVCOPView","inputs":[{"name":"vcopAmount","type":"uint256","internalType":"uint256"}],"outputs":[{"name":"","type":"uint256","internalType":"uint256"}],"stateMutability":"view"},{"type":"function","name":"calculateVCOPForCollateral","inputs":[{"name":"collateralAmount","type":"uint256","internalType":"uint256"}],"outputs":[{"name":"","type":"uint256","internalType":"uint256"}],"stateMutability":"nonpayable"},{"type":"function","name":"calculateVCOPForCollateralView","inputs":[{"name":"collateralAmount","type":"uint256","internalType":"uint256"}],"outputs":[{"name":"","type":"uint256","internalType":"uint256"}],"stateMutability":"view"},{"type":"function","name":"collateralManager","inputs":[],"outputs":[{"name":"","type":"address","internalType":"contract VCOPCollateralManager"}],"stateMutability":"view"},{"type":"function","name":"collateralManagerAddress","inputs":[],"outputs":[{"name":"","type":"address","internalType":"address"}],"stateMutability":"view"},{"type":"function","name":"getHookPermissions","inputs":[],"outputs":[{"name":"","type":"tuple","internalType":"struct Hooks.Permissions","components":[{"name":"beforeInitialize","type":"bool","internalType":"bool"},{"name":"afterInitialize","type":"bool","internalType":"bool"},{"name":"beforeAddLiquidity","type":"bool","internalType":"bool"},{"name":"afterAddLiquidity","type":"bool","internalType":"bool"},{"name":"beforeRemoveLiquidity","type":"bool","internalType":"bool"},{"name":"afterRemoveLiquidity","type":"bool","internalType":"bool"},{"name":"beforeSwap","type":"bool","internalType":"bool"},{"name":"afterSwap","type":"bool","internalType":"bool"},{"name":"beforeDonate","type":"bool","internalType":"bool"},{"name":"afterDonate","type":"bool","internalType":"bool"},{"name":"beforeSwapReturnDelta","type":"bool","internalType":"bool"},{"name":"afterSwapReturnDelta","type":"bool","internalType":"bool"},{"name":"afterAddLiquidityReturnDelta","type":"bool","internalType":"bool"},{"name":"afterRemoveLiquidityReturnDelta","type":"bool","internalType":"bool"}]}],"stateMutability":"pure"},{"type":"function","name":"getPSMStats","inputs":[],"outputs":[{"name":"vcopReserve","type":"uint256","internalType":"uint256"},{"name":"collateralReserve","type":"uint256","internalType":"uint256"},{"name":"lastOperationTimestamp","type":"uint256","internalType":"uint256"},{"name":"totalSwapsCount","type":"uint256","internalType":"uint256"}],"stateMutability":"view"},{"type":"function","name":"largeSwapThreshold","inputs":[],"outputs":[{"name":"","type":"uint256","internalType":"uint256"}],"stateMutability":"view"},{"type":"function","name":"monitorPrice","inputs":[],"outputs":[{"name":"","type":"bool","internalType":"bool"}],"stateMutability":"nonpayable"},{"type":"function","name":"oracle","inputs":[],"outputs":[{"name":"","type":"address","internalType":"contract VCOPOracle"}],"stateMutability":"view"},{"type":"function","name":"owner","inputs":[],"outputs":[{"name":"","type":"address","internalType":"address"}],"stateMutability":"view"},{"type":"function","name":"pausePSM","inputs":[{"name":"paused","type":"bool","internalType":"bool"}],"outputs":[],"stateMutability":"nonpayable"},{"type":"function","name":"pegLowerBound","inputs":[],"outputs":[{"name":"","type":"uint256","internalType":"uint256"}],"stateMutability":"view"},{"type":"function","name":"pegUpperBound","inputs":[],"outputs":[{"name":"","type":"uint256","internalType":"uint256"}],"stateMutability":"view"},{"type":"function","name":"poolManager","inputs":[],"outputs":[{"name":"","type":"address","internalType":"contract IPoolManager"}],"stateMutability":"view"},{"type":"function","name":"psmFee","inputs":[],"outputs":[{"name":"","type":"uint256","internalType":"uint256"}],"stateMutability":"view"},{"type":"function","name":"psmMaxSwapAmount","inputs":[],"outputs":[{"name":"","type":"uint256","internalType":"uint256"}],"stateMutability":"view"},{"type":"function","name":"psmPaused","inputs":[],"outputs":[{"name":"","type":"bool","internalType":"bool"}],"stateMutability":"view"},{"type":"function","name":"psmSwapCollateralForVCOP","inputs":[{"name":"collateralAmount","type":"uint256","internalType":"uint256"}],"outputs":[],"stateMutability":"nonpayable"},{"type":"function","name":"psmSwapVCOPForCollateral","inputs":[{"name":"vcopAmount","type":"uint256","internalType":"uint256"}],"outputs":[],"stateMutability":"nonpayable"},{"type":"function","name":"renounceOwnership","inputs":[],"outputs":[],"stateMutability":"nonpayable"},{"type":"function","name":"setCollateralManager","inputs":[{"name":"_manager","type":"address","internalType":"address"}],"outputs":[],"stateMutability":"nonpayable"},{"type":"function","name":"stabilizePriceWithPSM","inputs":[],"outputs":[],"stateMutability":"nonpayable"},{"type":"function","name":"stablecoinCurrency","inputs":[],"outputs":[{"name":"","type":"address","internalType":"Currency"}],"stateMutability":"view"},{"type":"function","name":"transferOwnership","inputs":[{"name":"newOwner","type":"address","internalType":"address"}],"outputs":[],"stateMutability":"nonpayable"},{"type":"function","name":"treasury","inputs":[],"outputs":[{"name":"","type":"address","internalType":"address"}],"stateMutability":"view"},{"type":"function","name":"updateLargeSwapThreshold","inputs":[{"name":"_threshold","type":"uint256","internalType":"uint256"}],"outputs":[],"stateMutability":"nonpayable"},{"type":"function","name":"updatePSMParameters","inputs":[{"name":"_fee","type":"uint256","internalType":"uint256"},{"name":"_maxAmount","type":"uint256","internalType":"uint256"}],"outputs":[],"stateMutability":"nonpayable"},{"type":"function","name":"updateStabilityParameters","inputs":[{"name":"_upperBound","type":"uint256","internalType":"uint256"},{"name":"_lowerBound","type":"uint256","internalType":"uint256"}],"outputs":[],"stateMutability":"nonpayable"},{"type":"function","name":"vcopCurrency","inputs":[],"outputs":[{"name":"","type":"address","internalType":"Currency"}],"stateMutability":"view"},{"type":"event","name":"CollateralManagerUpdated","inputs":[{"name":"newManager","type":"address","indexed":false,"internalType":"address"}],"anonymous":false},{"type":"event","name":"OwnershipTransferred","inputs":[{"name":"previousOwner","type":"address","indexed":true,"internalType":"address"},{"name":"newOwner","type":"address","indexed":true,"internalType":"address"}],"anonymous":false},{"type":"event","name":"PSMParametersUpdated","inputs":[{"name":"fee","type":"uint256","indexed":false,"internalType":"uint256"},{"name":"maxAmount","type":"uint256","indexed":false,"internalType":"uint256"}],"anonymous":false},{"type":"event","name":"PSMPaused","inputs":[{"name":"paused","type":"bool","indexed":false,"internalType":"bool"}],"anonymous":false},{"type":"event","name":"PSMStabilizationExecuted","inputs":[{"name":"isBuy","type":"bool","indexed":false,"internalType":"bool"},{"name":"amount","type":"uint256","indexed":false,"internalType":"uint256"},{"name":"price","type":"uint256","indexed":false,"internalType":"uint256"}],"anonymous":false},{"type":"event","name":"PSMSwap","inputs":[{"name":"account","type":"address","indexed":false,"internalType":"address"},{"name":"isVcopToCollateral","type":"bool","indexed":false,"internalType":"bool"},{"name":"amountIn","type":"uint256","indexed":false,"internalType":"uint256"},{"name":"amountOut","type":"uint256","indexed":false,"internalType":"uint256"}],"anonymous":false},{"type":"event","name":"PriceMonitored","inputs":[{"name":"vcopToCopRate","type":"uint256","indexed":false,"internalType":"uint256"},{"name":"isWithinBounds","type":"bool","indexed":false,"internalType":"bool"}],"anonymous":false},{"type":"event","name":"StabilityParametersUpdated","inputs":[{"name":"upperBound","type":"uint256","indexed":false,"internalType":"uint256"},{"name":"lowerBound","type":"uint256","indexed":false,"internalType":"uint256"}],"anonymous":false},{"type":"error","name":"AddressEmptyCode","inputs":[{"name":"target","type":"address","internalType":"address"}]},{"type":"error","name":"AddressInsufficientBalance","inputs":[{"name":"account","type":"address","internalType":"address"}]},{"type":"error","name":"FailedInnerCall","inputs":[]},{"type":"error","name":"HookNotImplemented","inputs":[]},{"type":"error","name":"NotPoolManager","inputs":[]},{"type":"error","name":"OwnableInvalidOwner","inputs":[{"name":"owner","type":"address","internalType":"address"}]},{"type":"error","name":"OwnableUnauthorizedAccount","inputs":[{"name":"account","type":"address","internalType":"address"}]},{"type":"error","name":"SafeERC20FailedOperation","inputs":[{"name":"token","type":"address","internalType":"address"}]}],"bytecode":{"object":"0x60c080604052346104c45760e08161338a803803809161001f82856104e4565b8339810103126104c4578051906001600160a01b03821682036104c45761004860208201610507565b61005460408301610507565b9161006160608201610507565b9361006e60808301610507565b9061008760c061008060a08601610507565b9401610507565b906080525f6101a060405161009b816104c8565b8281528260208201528260408201528260608201528260808201528260a08201528260c08201528260e0820152826101008201528261012082015282610140820152826101608201528261018082015201525f6101a06040516100fd816104c8565b828152826020820152826040820152600160608201528260808201528260a0820152600160c0820152600160e0820152826101008201528261012082015282610140820152826101608201528261018082015201526120003016158015906104b7575b80156104aa575b8015610499575b801561048c575b801561047f575b801561046f575b801561045f575b8015610453575b8015610447575b801561043b575b801561042f575b8015610423575b8015610417575b610404576001600160a01b03169485156103f1575f80546001600160a01b0319811688178255604051969188916001600160a01b0316907f8be0079c531659141344cd1fd0a4f28419497f9722a3daafe3b4186f6b6457e09080a3620f6950600455620f1b306005556103e86006556402540be4006007556008805464012a05f200600955600180546001600160a01b03199081166001600160a01b03998a161790915592871660a052600280548416948816949094179093556003805490921693909516929092179091556001600160a81b03191690821b610100600160a81b031617905560608101906001600160401b038211818310176103dd575f928392604052602a8252610349608460208401927f56434f50436f6c6c61746572616c486f6f6b20696e697469616c697a6564207784526934ba341037bbb732b91d60b11b6040860152604051938491602083019663319af33360e01b8852604060248501525180928160648601528585015e878483850101526044830152601f801991011681010301601f1981018352826104e4565b51906a636f6e736f6c652e6c6f675afa50604051612e6e908161051c82396080518181816105040152818161057f015281816105d101528181610c7e01528181610efc015281816118f20152818161197201528181611a300152611bfd015260a0518181816111c301528181611c7d015281816120fd015281816125980152818161269c0152818161287901526129bd0152f35b634e487b7160e01b5f52604160045260245ffd5b631e4fbdf760e01b5f525f60045260245ffd5b630732d7b560e51b5f523060045260245ffd5b506001301615156101b4565b506002301615156101ad565b506004301615156101a6565b5060083016151561019f565b50601030161515610198565b50602030161515610191565b506040301615156001141561018a565b5060803016151560011415610183565b506101003016151561017c565b5061020030161515610175565b50610400301615156001141561016e565b5061080030161515610167565b5061100030161515610160565b5f80fd5b6101c081019081106001600160401b038211176103dd57604052565b601f909101601f19168101906001600160401b038211908210176103dd57604052565b51906001600160a01b03821682036104c45756fe60806040526004361015610011575f80fd5b5f803560e01c806213fa7714611e095780630d84af9d14611deb5780630e50ad3a14611dc95780630f29b1e014611da35780631269edef14611d7f5780632156df3014611d6257806321d0ee7014611be05780632276f26014611c5d57806323be345c14611c32578063259982e514611be05780633e1c999414611bba578063414683a814611b9d578063575e24b4146119d057806361d027b3146119a75780636c2bbe7e146119535780636d8fcb42146119365780636fe7e6eb146118ac578063715018a6146118485780637522d37b146113c95780637742b286146113aa5780637ad74385146111e75780637dc0d1d0146111a3578063842a05d4146110e15780638da5cb5b146110bb578063958af60d146110945780639f063efc14610edd578063aca5d32714610e48578063ad15795414610e21578063afc8760614610e03578063b47b2fb114610c1d578063b6a8b0fa146104e2578063c4e833ce14610ab3578063d1a2098914610613578063d4327b69146105f5578063dc4c90d3146105b1578063dc98354e14610542578063e1b4af69146104e2578063e4afa2db14610471578063e980083e146103a5578063eb5334d4146102895763f2fde38b146101dc575f80fd5b34610286576020366003190112610286576001600160a01b036101fd611e23565b610205612cbb565b16801561025a576001600160a01b0382548273ffffffffffffffffffffffffffffffffffffffff198216178455167f8be0079c531659141344cd1fd0a4f28419497f9722a3daafe3b4186f6b6457e08380a380f35b6024827f1e4fbdf700000000000000000000000000000000000000000000000000000000815280600452fd5b80fd5b50346102865761029836611f4b565b600460206001600160a01b036102ac6127b9565b1660405192838092638da5cb5b60e01b82525afa90811561039a576102e4916001600160a01b0391869161036b575b50163314612963565b8082111561032757816040917ffa971398efa0f2d0d319ecb84bbfb1a85a49f3c8d7e6043e39613b807049e428936004558060055582519182526020820152a180f35b606460405162461bcd60e51b815260206004820152600e60248201527f496e76616c696420626f756e64730000000000000000000000000000000000006044820152fd5b61038d915060203d602011610393575b6103858183612035565b810190612944565b5f6102db565b503d61037b565b6040513d86823e3d90fd5b50346102865760203660031901126102865760043580151580910361046d57600460206001600160a01b036103d86127b9565b1660405192838092638da5cb5b60e01b82525afa918215610462576104326001600160a01b037fe4b3d2a6e57869ec41aecda0a67548b140292062032c6672e58dbf91b41e740394602094879161044b5750163314612963565b60ff196008541660ff821617600855604051908152a180f35b61038d9150853d8711610393576103858183612035565b6040513d85823e3d90fd5b5080fd5b503461028657602036600319011261028657600460206001600160a01b036104976127b9565b1660405192838092638da5cb5b60e01b82525afa9081156104d7576104ce916001600160a01b0391849161036b5750163314612963565b60043560095580f35b6040513d84823e3d90fd5b5034610286576004906104f436611f61565b5050505050506001600160a01b037f000000000000000000000000000000000000000000000000000000000000000016330361053657630a85dc2960e01b8152fd5b63570c108560e11b8152fd5b50346102865760e03660031901126102865761055c611e23565b5060a036602319011261028657600490610574611f35565b506001600160a01b037f000000000000000000000000000000000000000000000000000000000000000016330361053657630a85dc2960e01b8152fd5b503461028657806003193601126102865760206040516001600160a01b037f0000000000000000000000000000000000000000000000000000000000000000168152f35b50346102865780600319360112610286576020600754604051908152f35b50346102865760203660031901126102865760043561063760ff6008541615611fb9565b8015610a6f576106468161286a565b610654600754821115612812565b61066f620f424061066760065484612078565b048092612057565b600354604051636eb1769f60e11b815233600482015230602482015291926001600160a01b0390911691602081604481865afa8015610a645785918791610a2b575b50106109c15784806001600160a01b036106c96127b9565b166040516107188161070a8a60208301956323b872dd60e01b875233602485016001600160a01b036040929594938160608401971683521660208201520152565b03601f198101835282612035565b519082865af13d156109b5573d9067ffffffffffffffff82116109a15760405161076392909190610753601f8201601f191660200184612035565b82523d88602084013e5b84612dac565b805190811515918261097a575b505061094e579084916001600160a01b036107896127b9565b16803b15610935576040517ff64005640000000000000000000000000000000000000000000000000000000081526001600160a01b0384166004820152602481018790529084908290604490829084905af190811561039a578491610939575b50506001600160a01b036107fb6127b9565b16803b156109355760405163dd411b8b60e01b81523360048201526001600160a01b0384166024820152604481018690529084908290606490829084905af190811561039a578491610920575b505080610891575b827f0867f4c3da818fe62ba7a8bf4c0394527b43ea28693103cb44f73d460a1cefa6608087876040519133835285602084015260408301526060820152a180f35b6001600160a01b036108a16127b9565b16906001600160a01b0360085460081c1691803b1561091c5760405163dd411b8b60e01b81526001600160a01b039384166004820152939092166024840152604483015282908290606490829084905af180156104d757610903575b80610850565b8161090d91612035565b61091857825f6108fd565b8280fd5b8480fd5b8161092a91612035565b61091857825f610848565b8380fd5b8161094391612035565b61091857825f6107e9565b602485837f5274afe7000000000000000000000000000000000000000000000000000000008252600452fd5b819250906020918101031261099d576020610995910161285d565b155f80610770565b8580fd5b602487634e487b7160e01b81526041600452fd5b6107639060609061075d565b608460405162461bcd60e51b815260206004820152602160248201527f496e73756666696369656e7420636f6c6c61746572616c20616c6c6f77616e6360448201527f65000000000000000000000000000000000000000000000000000000000000006064820152fd5b9150506020813d602011610a5c575b81610a4760209383612035565b81010312610a58578490515f6106b1565b5f80fd5b3d9150610a3a565b6040513d88823e3d90fd5b606460405162461bcd60e51b815260206004820152600e60248201527f496e76616c696420616d6f756e740000000000000000000000000000000000006044820152fd5b5034610286578060031936011261028657806101c0916101a0604051610ad881612004565b8281528260208201528260408201528260608201528260808201528260a08201528260c08201528260e08201528261010082015282610120820152826101408201528261016082015282610180820152015260405190610b3782612004565b80825260208201918183526040810182815260608201600181526080830184815260a0840185815260c085016001815260e0860190600182526101008701928884526101208801948986526101408901968a88526101608a01988b8a526101a06101808c019b8d8d52019b808d5260206040519e8f92835251151591015251151560408d015251151560608c015251151560808b015251151560a08a015251151560c089015251151560e08801525115156101008701525115156101208601525115156101408501525115156101608401525115156101808301525115156101a0820152f35b50346102865761016036600319011261028657610c38611e23565b5060a03660231901126102865760603660c3190112610286576101443567ffffffffffffffff811161046d57610c72903690600401611e39565b50506001600160a01b037f0000000000000000000000000000000000000000000000000000000000000000163303610df457604090610caf612d0e565b610ce1575b8151907fb47b2fb10000000000000000000000000000000000000000000000000000000082526020820152f35b81610d208151610cf18382612035565b601781527f56434f5020706f6f6c20737761702064657465637465640000000000000000006020820152612a8b565b5f80610d2a61267e565b92610dba815191610d3b8184612035565b601e83527f50726963652077697468696e2073746162696c69747920626f756e64733a00006020840152610da281519384927fc3b5563500000000000000000000000000000000000000000000000000000000602085015260248401526064830190612a67565b9515958615604483015203601f198101835282612035565b6020815191016a636f6e736f6c652e6c6f675afa5080610de7575b15610cb457610de26120e4565b610cb4565b5060ff6008541615610dd5565b8063570c108560e11b60049252fd5b50346102865780600319360112610286576020600454604051908152f35b5034610286576020366003190112610286576020610e406004356129ae565b604051908152f35b5034610286576004610e5936611f4b565b919060206001600160a01b03610e6d6127b9565b1660405193848092638da5cb5b60e01b82525afa92831561039a57610ec76001600160a01b037f891384186ffead2cb35cd6acef852802689f307176dd41748e5a8a7f2b46297695604095889161036b5750163314612963565b816006558060075582519182526020820152a180f35b503461028657610eec36611ecb565b5050509250506001600160a01b037f0000000000000000000000000000000000000000000000000000000000000000163303611085576001600160a01b03610f3382612cfa565b81600254169182911614918215611065575b5050610f7c575b6040908151907f9f063efc0000000000000000000000000000000000000000000000000000000082526020820152f35b604051917f1269edef00000000000000000000000000000000000000000000000000000000835260208360048184305af18061102b575b6040935061102557506110208251610fcc606082612035565b603b81527f5072696365206d6f6e69746f72696e67206661696c6564202d206c696b656c7960208201527f20647572696e6720706f6f6c20696e697469616c697a6174696f6e000000000084820152612a8b565b610f4c565b50610f4c565b6020843d60201161105d575b8161104460209383612035565b8101031261046d5761105760409461285d565b50610fb3565b3d9150611037565b6001600160a01b03919250602061107c9101612cfa565b16145f80610f45565b60048363570c108560e11b8152fd5b503461028657806003193601126102865760206001600160a01b0360035416604051908152f35b50346102865780600319360112610286576001600160a01b036020915416604051908152f35b5034610286576020366003190112610286576001600160a01b03611103611e23565b61110b612cbb565b16801561115f576020817f507e88d0e3541203c8e7dba038a3e807ac9121f0872ed9ed895cd7f3358334eb9273ffffffffffffffffffffffffffffffffffffffff196001541617600155604051908152a180f35b606460405162461bcd60e51b815260206004820152601860248201527f5a65726f2061646472657373206e6f7420616c6c6f77656400000000000000006044820152fd5b503461028657806003193601126102865760206040516001600160a01b037f0000000000000000000000000000000000000000000000000000000000000000168152f35b50346102865780600319360112610286576001600160a01b036003541660606001600160a01b036112166127b9565b1691602460405180948193636635e57360e01b835260048301525afa9081156104d7579160049281908293611375575b5060206001600160a01b036112596127b9565b16604051958680927f14daad990000000000000000000000000000000000000000000000000000000082525afa9081156104d7578291611340575b6004945060206001600160a01b036112aa6127b9565b16604051968780927f878b65410000000000000000000000000000000000000000000000000000000082525afa92831561133457926112ff575b60809450604051938452602084015260408301526060820152f35b91506020843d60201161132c575b8161131a60209383612035565b81010312610a585760809351916112e4565b3d915061130d565b604051903d90823e3d90fd5b90506020843d60201161136d575b8161135b60209383612035565b81010312610a58576004935190611294565b3d915061134e565b905061139a91925060603d6060116113a3575b6113928183612035565b810190612925565b5091905f611246565b503d611388565b5034610286576020366003190112610286576020610e4060043561286a565b5034610a58576020366003190112610a58576004356113ed60ff6008541615611fb9565b6113fb600754821115612812565b61140481612589565b611417620f424061066760065484612078565b906001600160a01b0360035416906001600160a01b036114356127b9565b6040517fdafc87300000000000000000000000000000000000000000000000000000000081526001600160a01b0385166004820152602481018690529160209183916044918391165afa9081156116c8575f9161180e575b50156117ca57600254604051636eb1769f60e11b81523360048201523060248201526001600160a01b0390911690602081604481855afa80156116c85786915f91611795575b5010611751576040516323b872dd60e01b8152336004820152306024820152604481018690526020816064815f865af19081156116c8575f91611717575b50156116d357803b15610a58576040517f9dc29fac00000000000000000000000000000000000000000000000000000000815230600482015260248101869052905f908290604490829084905af180156116c8576116b1575b509084916001600160a01b0361157e6127b9565b16803b15610935576040516322d4a3c560e01b81523360048201526001600160a01b0384166024820152604481018690529084908290606490829084905af190811561039a57849161169c575b505080611615575b827f0867f4c3da818fe62ba7a8bf4c0394527b43ea28693103cb44f73d460a1cefa660808787604051913383526001602084015260408301526060820152a180f35b6001600160a01b036116256127b9565b16906001600160a01b0360085460081c1691803b1561091c576040516322d4a3c560e01b81526001600160a01b039384166004820152939092166024840152604483015282908290606490829084905af180156104d757611687575b806115d3565b8161169191612035565b61091857825f611681565b816116a691612035565b61091857825f6115cb565b6116bf919295505f90612035565b5f93905f61156a565b6040513d5f823e3d90fd5b606460405162461bcd60e51b815260206004820152601460248201527f56434f50207472616e73666572206661696c65640000000000000000000000006044820152fd5b90506020813d602011611749575b8161173260209383612035565b81010312610a58576117439061285d565b5f611511565b3d9150611725565b606460405162461bcd60e51b815260206004820152601b60248201527f496e73756666696369656e742056434f5020616c6c6f77616e636500000000006044820152fd5b9150506020813d6020116117c2575b816117b160209383612035565b81010312610a58578590515f6114d3565b3d91506117a4565b606460405162461bcd60e51b815260206004820152601960248201527f496e73756666696369656e742050534d207265736572766573000000000000006044820152fd5b90506020813d602011611840575b8161182960209383612035565b81010312610a585761183a9061285d565b5f61148d565b3d915061181c565b34610a58575f366003190112610a5857611860612cbb565b5f6001600160a01b03815473ffffffffffffffffffffffffffffffffffffffff1981168355167f8be0079c531659141344cd1fd0a4f28419497f9722a3daafe3b4186f6b6457e08280a3005b34610a5857610100366003190112610a58576118c6611e23565b5060a0366023190112610a58576118db611f35565b5060e4358060020b03610a58576001600160a01b037f000000000000000000000000000000000000000000000000000000000000000016330361192757630a85dc2960e01b5f5260045ffd5b63570c108560e11b5f5260045ffd5b34610a58575f366003190112610a58576020600654604051908152f35b34610a585761196136611ecb565b505050505050506001600160a01b037f000000000000000000000000000000000000000000000000000000000000000016330361192757630a85dc2960e01b5f5260045ffd5b34610a58575f366003190112610a585760206001600160a01b0360085460081c16604051908152f35b34610a5857610140366003190112610a58576119ea611e23565b5060a0366023190112610a585760603660c3190112610a58576101243567ffffffffffffffff8111610a5857611a24903690600401611e39565b50506001600160a01b037f000000000000000000000000000000000000000000000000000000000000000016330361192757611a5e612d0e565b611a99575b60606040517f575e24b40000000000000000000000000000000000000000000000000000000081525f60208201525f6040820152f35b611aa1612d5a565b80611b1f575b15611a6357611b12604051611abd606082612035565b602881527f4c6172676520737761702064657465637465642074686174206d69676874206260208201527f7265616b207065670000000000000000000000000000000000000000000000006040820152612a8b565b611b1a6120e4565b611a63565b506024356001600160a01b03811690818103610a5857506001600160a01b036002541680911480611b8f575b15611b5f575b50611b5a612d5a565b611aa7565b6044356001600160a01b03811690818103610a58575014611b81575b80611b51565b611b89612d9d565b50611b7b565b50611b98612d9d565b611b4b565b34610a58575f366003190112610a58576020600954604051908152f35b34610a58575f366003190112610a585760206001600160a01b0360015416604051908152f35b34610a5857611bee36611e67565b50505050506001600160a01b037f000000000000000000000000000000000000000000000000000000000000000016330361192757630a85dc2960e01b5f5260045ffd5b34610a58575f366003190112610a58576020611c4c6127b9565b6001600160a01b0360405191168152f35b34610a58576020366003190112610a5857604051635b9c72af60e01b81527f00000000000000000000000000000000000000000000000000000000000000006001600160a01b0316602082600481845afa9182156116c8575f92611d2d575b5060206004916040519283809263ea0ca6a960e01b82525afa9081156116c8575f91611cfa575b6020610e4083611cf586600435612078565b61208b565b90506020813d602011611d25575b81611d1560209383612035565b81010312610a5857516020611ce3565b3d9150611d08565b9091506020813d602011611d5a575b81611d4960209383612035565b81010312610a585751906020611cbc565b3d9150611d3c565b34610a58575f366003190112610a58576020600554604051908152f35b34610a58575f366003190112610a58576020611d9961267e565b6040519015158152f35b34610a58575f366003190112610a585760206001600160a01b0360025416604051908152f35b34610a58575f366003190112610a5857602060ff600854166040519015158152f35b34610a58576020366003190112610a58576020610e40600435612589565b34610a58575f366003190112610a5857611e216120e4565b005b600435906001600160a01b0382168203610a5857565b9181601f84011215610a585782359167ffffffffffffffff8311610a585760208381860195010111610a5857565b90610160600319830112610a58576004356001600160a01b0381168103610a58579160a0602319820112610a5857602491608060c319830112610a585760c491610144359067ffffffffffffffff8211610a5857611ec791600401611e39565b9091565b906101a0600319830112610a58576004356001600160a01b0381168103610a58579160a0602319820112610a5857602491608060c319830112610a585760c49161014435916101643591610184359067ffffffffffffffff8211610a5857611ec791600401611e39565b60c435906001600160a01b0382168203610a5857565b6040906003190112610a58576004359060243590565b610120600319820112610a58576004356001600160a01b0381168103610a58579160a0602319830112610a585760249160c4359160e43591610104359067ffffffffffffffff8211610a5857611ec791600401611e39565b15611fc057565b606460405162461bcd60e51b815260206004820152600d60248201527f50534d20697320706175736564000000000000000000000000000000000000006044820152fd5b6101c0810190811067ffffffffffffffff82111761202157604052565b634e487b7160e01b5f52604160045260245ffd5b90601f8019910116810190811067ffffffffffffffff82111761202157604052565b9190820391821161206457565b634e487b7160e01b5f52601160045260245ffd5b8181029291811591840414171561206457565b8115612095570490565b634e487b7160e01b5f52601260045260245ffd5b604051906120b8604083612035565b600482527f56434f50000000000000000000000000000000000000000000000000000000006020830152565b6120f360ff6008541615611fb9565b6001600160a01b037f00000000000000000000000000000000000000000000000000000000000000001660405163bfbf025160e01b81526020816004815f865af15f9181612555575b50612185575050612183604051612154604082612035565b601f81527f4661696c656420746f206765742070726963652066726f6d206f7261636c65006020820152612a8b565b565b906040916121c88184516121998682612035565b601681527f43757272656e742056434f502f434f5020726174653a000000000000000000006020820152612ae8565b6005549061220b8285516121dc8782612035565b600c81527f4c6f77657220626f756e643a00000000000000000000000000000000000000006020820152612ae8565b60045461224d81865161221e8882612035565b600c81527f557070657220626f756e643a00000000000000000000000000000000000000006020820152612ae8565b828210156123a957506122609082612057565b620f4240810290808204620f424014901517156120645761229361228b61229993620f42409361208b565b600754612078565b04612bdf565b91826122a457505050565b60206004926122f083516122b88582612035565b601481527f457865637574696e672050534d20627579206f6600000000000000000000000084820152866122ea6120a9565b91612c58565b82519384809263ea0ca6a960e01b82525afa91821561239f575f92612349575b5091606091837f95c568f526c94a46c97ca9a1db1020c92926b9da9860be7e06783e75c0d1d532945192600184526020840152820152a1565b9150916020823d602011612397575b8161236560209383612035565b81010312610a5857905190917f95c568f526c94a46c97ca9a1db1020c92926b9da9860be7e06783e75c0d1d532612310565b3d9150612358565b50513d5f823e3d90fd5b9150818111156124ed57816123bd91612057565b620f4240810290808204620f42401490151715612064576123e861228b6123ee93620f42409361208b565b04612b44565b91826123f957505050565b602060049261243f835161240d8582612035565b601581527f457865637574696e672050534d2073656c6c206f66000000000000000000000084820152866122ea6120a9565b82519384809263ea0ca6a960e01b82525afa91821561239f575f92612497575b5091606091837f95c568f526c94a46c97ca9a1db1020c92926b9da9860be7e06783e75c0d1d5329451925f84526020840152820152a1565b9150916020823d6020116124e5575b816124b360209383612035565b81010312610a5857905190917f95c568f526c94a46c97ca9a1db1020c92926b9da9860be7e06783e75c0d1d53261245f565b3d91506124a6565b505050612183907f6174696f6e206e65656465640000000000000000000000000000000000000000815191612523606084612035565b602c83527f50726963652077697468696e20626f756e64732c206e6f2073746162696c697a6020840152820152612a8b565b9091506020813d602011612581575b8161257160209383612035565b81010312610a585751905f61213c565b3d9150612564565b60405163bfbf025160e01b81527f00000000000000000000000000000000000000000000000000000000000000006001600160a01b0316916020826004815f875af19182156116c8575f92612649575b5060205f929360046040518095819363a7bc785760e01b83525af19182156116c8575f92612613575b5061261092611cf591612078565b90565b9091506020813d602011612641575b8161262f60209383612035565b81010312610a58575190612610612602565b3d9150612622565b91506020823d602011612676575b8161266460209383612035565b81010312610a585790519060206125d9565b3d9150612657565b60405163bfbf025160e01b81526020816004815f6001600160a01b037f0000000000000000000000000000000000000000000000000000000000000000165af15f9181612785575b5061273657506127326040516126dd606082612035565b602781527f4661696c656420746f206765742056434f502f434f5020726174652066726f6d60208201527f206f7261636c65000000000000000000000000000000000000000000000000006040820152612a8b565b5f90565b6005548110159081612778575b60407f9d7c1511366d26aca640ce4644cf89df4da2025ada572b454765bfc2fa274c499181519081528315156020820152a190565b6004548111159150612743565b9091506020813d6020116127b1575b816127a160209383612035565b81010312610a585751905f6126c6565b3d9150612794565b6001600160a01b036001541680156127ce5790565b606460405162461bcd60e51b815260206004820152601a60248201527f436f6c6c61746572616c204d616e61676572206e6f74207365740000000000006044820152fd5b1561281957565b606460405162461bcd60e51b815260206004820152601860248201527f416d6f756e7420657863656564732050534d206c696d697400000000000000006044820152fd5b51908115158203610a5857565b60405163a7bc785760e01b81527f00000000000000000000000000000000000000000000000000000000000000006001600160a01b0316916020826004815f875af19182156116c8575f926128f0575b5060205f929360046040518095819363bfbf025160e01b83525af19182156116c8575f92612613575061261092611cf591612078565b91506020823d60201161291d575b8161290b60209383612035565b81010312610a585790519060206128ba565b3d91506128fe565b90816060910312610a585780519161261060406020840151930161285d565b90816020910312610a5857516001600160a01b0381168103610a585790565b1561296a57565b606460405162461bcd60e51b815260206004820152600e60248201527f4e6f7420617574686f72697a65640000000000000000000000000000000000006044820152fd5b60405163ea0ca6a960e01b81527f00000000000000000000000000000000000000000000000000000000000000006001600160a01b031691602082600481865afa9182156116c8575f92612a32575b5060206004929360405193848092635b9c72af60e01b82525afa9182156116c8575f92612613575061261092611cf591612078565b91506020823d602011612a5f575b81612a4d60209383612035565b81010312610a585790519060206129fd565b3d9150612a40565b805180835260209291819084018484015e5f828201840152601f01601f1916010190565b5f61070a612ad182936040519283917f41304fac000000000000000000000000000000000000000000000000000000006020840152602060248401526044830190612a67565b6020815191016a636f6e736f6c652e6c6f675afa50565b612b30612ad15f939284936040519384927fb60e72cc000000000000000000000000000000000000000000000000000000006020850152604060248501526064840190612a67565b90604483015203601f198101835282612035565b6001600160a01b036003541660606001600160a01b03612b626127b9565b1691602460405180948193636635e57360e01b835260048301525afa80156116c8575f915f91612bbc575b5015612bb657612b9c826129ae565b90808211612ba957505090565b611cf59061261093612078565b50505f90565b9050612bd7915060603d6060116113a3576113928183612035565b90505f612b8d565b6001600160a01b036003541660606001600160a01b03612bfd6127b9565b1691602460405180948193636635e57360e01b835260048301525afa9081156116c8575f91612c35575b5015612c305790565b505f90565b612c4e915060603d6060116113a3576113928183612035565b919050505f612c27565b612ad1612ca49161070a5f959486956040519586947f5970e089000000000000000000000000000000000000000000000000000000006020870152606060248701526084860190612a67565b916044850152602319848303016064850152612a67565b6001600160a01b035f54163303612cce57565b7f118cdaa7000000000000000000000000000000000000000000000000000000005f523360045260245ffd5b356001600160a01b0381168103610a585790565b6024356001600160a01b03811690818103610a5857506001600160a01b0360025416809114908115612d3e575090565b90506044356001600160a01b03811690818103610a5857501490565b60e4355f811215612d96577f8000000000000000000000000000000000000000000000000000000000000000811461206457600954905f031190565b6009541090565b60c4358015158103610a585790565b90612de95750805115612dc157805190602001fd5b7f1425ea42000000000000000000000000000000000000000000000000000000005f5260045ffd5b81511580612e2f575b612dfa575090565b6001600160a01b03907f9996b315000000000000000000000000000000000000000000000000000000005f521660045260245ffd5b50803b15612df256fea26469706673582212202703e984b20db80b553c0ee79c3ba2e3493ef295f5ba357770a2e2b517ca4b3f64736f6c634300081a0033","linkReferences":{}},"methodIdentifiers":{"afterAddLiquidity(address,(address,address,uint24,int24,address),(int24,int24,int256,bytes32),int256,int256,bytes)":"9f063efc","afterDonate(address,(address,address,uint24,int24,address),uint256,uint256,bytes)":"e1b4af69","afterInitialize(address,(address,address,uint24,int24,address),uint160,int24)":"6fe7e6eb","afterRemoveLiquidity(address,(address,address,uint24,int24,address),(int24,int24,int256,bytes32),int256,int256,bytes)":"6c2bbe7e","afterSwap(address,(address,address,uint24,int24,address),(bool,int256,uint160),int256,bytes)":"b47b2fb1","beforeAddLiquidity(address,(address,address,uint24,int24,address),(int24,int24,int256,bytes32),bytes)":"259982e5","beforeDonate(address,(address,address,uint24,int24,address),uint256,uint256,bytes)":"b6a8b0fa","beforeInitialize(address,(address,address,uint24,int24,address),uint160)":"dc98354e","beforeRemoveLiquidity(address,(address,address,uint24,int24,address),(int24,int24,int256,bytes32),bytes)":"21d0ee70","beforeSwap(address,(address,address,uint24,int24,address),(bool,int256,uint160),bytes)":"575e24b4","calculateCollateralForVCOP(uint256)":"0d84af9d","calculateCollateralForVCOPView(uint256)":"ad157954","calculateVCOPForCollateral(uint256)":"7742b286","calculateVCOPForCollateralView(uint256)":"2276f260","collateralManager()":"23be345c","collateralManagerAddress()":"3e1c9994","getHookPermissions()":"c4e833ce","getPSMStats()":"7ad74385","largeSwapThreshold()":"414683a8","monitorPrice()":"1269edef","oracle()":"7dc0d1d0","owner()":"8da5cb5b","pausePSM(bool)":"e980083e","pegLowerBound()":"2156df30","pegUpperBound()":"afc87606","poolManager()":"dc4c90d3","psmFee()":"6d8fcb42","psmMaxSwapAmount()":"d4327b69","psmPaused()":"0e50ad3a","psmSwapCollateralForVCOP(uint256)":"d1a20989","psmSwapVCOPForCollateral(uint256)":"7522d37b","renounceOwnership()":"715018a6","setCollateralManager(address)":"842a05d4","stabilizePriceWithPSM()":"0013fa77","stablecoinCurrency()":"958af60d","transferOwnership(address)":"f2fde38b","treasury()":"61d027b3","updateLargeSwapThreshold(uint256)":"e4afa2db","updatePSMParameters(uint256,uint256)":"aca5d327","updateStabilityParameters(uint256,uint256)":"eb5334d4","vcopCurrency()":"0f29b1e0"},"id":107}